:100000000C9403010C942B010C942B010C942B01E8
:100010000C942B010C942B010C942B010C942B01B0
:100020000C942B010C942B010C942B010C942B01A0
:100030000C942B010C942B010C942B010C942B0190
:100040000C94430B0C942B010C942B010C942B015E
:100050000C942B010C942B010C942B010C942B0170
:100060000C942B010C942B01504120506F7765723A
:1000700009203D2025530D0A00435243204C656E54
:1000800067746809203D2025530D0A004D6F646593
:100090006C0909203D2025530D0A0044617461203C
:1000A0005261746509203D2025530D0A0044594EC4
:1000B00050442F4645415455524500434F4E464902
:1000C000470052465F53455455500052465F4348DF
:1000D00000454E5F52584144445200454E5F4141F5
:1000E0000052585F50575F50302D360054585F41D2
:1000F0004444520052585F414444525F50322D35BF
:100100000052585F414444525F50302D31000D0A77
:1001100000253032780020307800255309256320EF
:100120003D000D0A00203078253032780025530933
:100130002563203D005354415455530909203D2067
:100140003078253032782052585F44523D2578204F
:1001500054585F44533D2578204D41585F52543DDB
:1001600025782052585F505F4E4F3D2578205458D7
:100170005F46554C4C3D25780D0A000001020304F2
:10018000051112131415160A0B0C0D0E0FAB01A45A
:10019000019D01950150415F48494748004C415F2E
:1001A0004D45440050415F4C4F570050415F4D4911
:1001B0004E00C701C001B801313620626974730076
:1001C0003820626974730044697361626C6564000D
:1001D000DE01D4016E524632344C30312B006E5267
:1001E0004632344C303100FB01F501ED013235303F
:1001F0004B42505300324D42505300314D42505308
:100200000000680C740C11241FBECFEFD8E0DEBFD5
:10021000CDBF21E0A6E0B1E001C01D92A839B20730
:10022000E1F711E0A0E0B1E0E6E1F2E202C0059002
:100230000D92A630B107D9F712E0C4E0D2E004C0B5
:100240002297FE010E948B0CC230D107C9F70E9491
:10025000F30B0C94FE100C940000FF920F931F936D
:10026000CF93DF93EC018B01F42E03960E94470499
:10027000FA821983088382E08EABDF91CF911F91C0
:100280000F91FF90089503960E94D9010895FC01F3
:10029000808191810E94D80A0895EF92FF920F9376
:1002A0001F93CF93DF93CDB7DEB764970FB6F89463
:1002B000DEBF0FBECDBF8C017C0183E0E80EF11CD8
:1002C000C7010E94110484E0F8018483878388ECCD
:1002D00090E0968385838281878740E0BE016F5FCF
:1002E0007F4FC7010E94DA014981BE016F5F7F4FD6
:1002F000F801808191810E94F40A80E1F80186ABC7
:100300000E94370BF80167AB70AF81AF92AF649674
:100310000FB6F894DEBF0FBECDBFDF91CF911F9116
:100320000F91FF90EF900895DF92EF92FF920F935D
:100330001F93CF93DF93CDB7DEB764970FB6F894D2
:10034000DEBF0FBECDBF8C01D62E7C0183E0E80E50
:10035000F11CC7010E94110488E1F801848340E088
:10036000BE016F5F7F4FC7010E94DA014981BE0164
:100370006F5F7F4FF801808191810E94F40AD11054
:1003800003C080E7F80186AB0E94370BF80167AB2A
:1003900070AF81AF92AF64960FB6F894DEBF0FBE18
:1003A000CDBFDF91CF911F910F91FF90EF90DF9024
:1003B000089508950F931F93CF93DF93FC01DB0102
:1003C00091819430E9F484818670848387E08C93F2
:1003D000818111968C931197848112968C93129738
:1003E000878113968C931397838114968C9314971B
:1003F000828115968C931597848516968C930CC2E2
:10040000953051F483E08C93818111968C931197F0
:10041000818512968C9300C221E0983009F020E08B
:10042000211106C081E0963009F080E0882331F088
:1004300082E08C93818111968C93EEC1973069F59F
:10044000848180778483882339F0ED3D8FEFF8072E
:1004500019F082E08C931DC083E0840F8C9384811B
:1004600012968C93129750E01416150694F49F017F
:100470002D5D3F4F8D010D5F1F4F80E090E0E90142
:1004800069919E01E80169938E0101968417950791
:10049000B4F3818111968C93BFC1993001F582E04C
:1004A000840F8C93818111968C93119750E01416D0
:1004B00015060CF0B1C180A112968C9312974230B0
:1004C00051050CF4A9C181A113968C931397433065
:1004D00051050CF4A1C182A114968C939DC19A3050
:1004E00039F586E0840F8C93818111968C93119756
:1004F000838512968C931297828513968C9313970B
:10050000868114968C931497858115968C931597F4
:1005100050E0141615060CF07FC17096169680E018
:1005200090E021912D93019684179507D4F374C11F
:100530009B30D1F487E08C93818111968C93119735
:10054000838512968C931297828513968C931397BA
:10055000868114968C931497858115968C931597A4
:10056000818516968C9358C19C30B9F58481837F20
:10057000848387E0840F8C93818111968C931197EB
:10058000848112968C931297838513968C9313977C
:10059000828514968C931497868115968C93159763
:1005A000858116968C93169750E0141615060CF05C
:1005B00033C1858517968C931797423051050CF4FB
:1005C0002BC1868518968C931897433051050CF4EF
:1005D00023C1878519968C931FC19D30D1F487E084
:1005E0008C93818111968C931197838512968C93AD
:1005F0001297828513968C931397868114968C9309
:100600001497858115968C931597818516968C93F2
:1006100003C182EF890F833070F484E08C93818171
:1006200011968C931197868112968C9312978581DF
:1006300013968C93F1C021E0923109F020E081E023
:10064000943109F080E0811102C0222321F122239C
:1006500019F09481937E9483882319F084818370A8
:10066000848387E08C93818111968C931197848188
:1006700012968C931297868113968C93139785818B
:1006800014968C931497838515968C931597828571
:1006900016968C93C1C0933109F58481807684834A
:1006A00088E08C93818111968C93119784811296A6
:1006B0008C931297838513968C9313978285149647
:1006C0008C931497868115968C9315978581169631
:1006D0008C931697818517968C939EC0953171F4F3
:1006E00084E08C93818111968C9311978681129668
:1006F0008C931297858113968C938EC0963151F40A
:1007000083E08C93818111968C9311978485129646
:100710008C9382C0973131F482E08C938181119661
:100720008C937AC09831A9F482819381892B59F0F6
:1007300084E08C93838112968C9312978281139616
:100740008C93139702C082E08C93818111968C93D5
:1007500063C09A3169F5848180778483882339F076
:10076000ED3DDFEFFD0719F082E08C931DC083E0C3
:10077000840F8C93848112968C93129750E01416F8
:10078000150694F49F012D5D3F4F8D010D5F1F4FA6
:1007900080E090E0E90169919E01E80169938E0192
:1007A000019684179507B4F3818111968C9334C018
:1007B0009C31E9F482E0840F8C93818111968C93B3
:1007C0001197842F90E01816190634F520A112967F
:1007D0002C93129782309105FCF021A113962C9353
:1007E00013970397CCF082A114968C9315C081E0E7
:1007F0009D3109F080E0811106C081E09B3109F054
:1008000080E0882349F083E08C93818111968C935A
:100810001197818512968C93DF91CF911F910F9143
:100820000895FC01108211821382128214821682B2
:10083000158281E0878310861186138612861486BE
:10084000158616861786108A118A128A138A148AC8
:10085000158A168A178A108E118E128E138E148E98
:10086000158E168E178E10A211A212A213A214A218
:1008700015A216A217A210A611A612A613A614A6B8
:1008800015A616A617A610AA11AA12AA08950E94C4
:1008900011040895CF93DF93EB0180E00E94190BC0
:1008A00080E00E94230B80E00E94280B219711F426
:1008B0002A9A01C02A98DF91CF910895CF92DF92B2
:1008C000EF92FF920F931F93CF93DF938C01C62F6C
:1008D000C42ED52EF22E60E070E00E944A048C2FC8
:1008E0008F710E94130BE82EFF2041F0CC2DDD2DDF
:1008F0008FEF0E94130B8993FA94D1F761E070E0B7
:10090000C8010E944A048E2DDF91CF911F910F9153
:10091000FF90EF90DF90CF9008951F93CF93DF93D8
:10092000EC01162F60E070E00E944A04812F8F7165
:100930000E94130B8FEF0E94130B182F61E070E0E1
:10094000CE010E944A04812FDF91CF911F9108951B
:10095000CF92DF92EF92FF920F931F93CF93DF938B
:100960008C01C62FC42ED52EF22E60E070E00E94BE
:100970004A048C2F8F7180620E94130BE82EFF2097
:1009800039F0CC2DDD2D89910E94130BFA94D9F703
:1009900061E070E0C8010E944A048E2DDF91CF9182
:1009A0001F910F91FF90EF90DF90CF9008950F93DC
:1009B0001F93CF93DF93EC01162F042F60E070E0BC
:1009C0000E944A04812F8F7180620E94130B182F9E
:1009D000802F0E94130B61E070E0CE010E944A0458
:1009E000812FDF91CF911F910F910895BF92CF92E8
:1009F000DF92EF92FF920F931F93CF93DF938C01BF
:100A0000B62EC72EFC01C281F42EC41708F4FC2EAA
:100A1000F8018481811103C0EC2EEF1801C0E12C94
:100A200060E070E0C8010E944A0480EA0E94130B53
:100A3000D82EFF2039F0CB2DDC2D89910E94130B8D
:100A4000FA94D9F7EE2031F0CE2D80E00E94130BFE
:100A5000C150D9F761E070E0C8010E944A048D2DB1
:100A6000DF91CF911F910F91FF90EF90DF90CF908A
:100A7000BF900895BF92CF92DF92EF92FF920F93B3
:100A80001F93CF93DF938C01B62EC72EFC01C2813A
:100A9000F42EC41708F4FC2EF8018481811103C0E0
:100AA000EC2EEF1801C0E12C60E070E0C8010E945C
:100AB0004A0481E60E94130BD82EFF2041F0CB2D73
:100AC000DC2D8FEF0E94130B8993FA94D1F7EE205F
:100AD00031F0CE2D8FEF0E94130BC150D9F761E09A
:100AE00070E0C8010E944A048D2DDF91CF911F91C3
:100AF0000F91FF90EF90DF90CF90BF9008951F93DC
:100B0000CF93DF93EC0160E070E00E944A0482EE34
:100B10000E94130B182F61E070E0CE010E944A047E
:100B2000812FDF91CF911F9108951F93CF93DF9372
:100B3000EC0160E070E00E944A0481EE0E94130B19
:100B4000182F61E070E0CE010E944A04812FDF91EE
:100B5000CF911F9108951F93CF93DF93EC0160E035
:100B600070E00E944A048FEF0E94130B182F61E07F
:100B700070E0CE010E944A04812FDF91CF911F9136
:100B80000895862F90E0262F21701F922F93959520
:100B90008795877099279F938F9364FB882780F9A7
:100BA0001F928F9365FB882780F91F928F9366FBB6
:100BB000882780F91F928F931F926F9385E391E0AE
:100BC0009F938F930E94E30C8DB79EB70E960FB63E
:100BD000F8949EBF0FBE8DBF0895DF92EF92FF92F3
:100BE0000F931F93CF93DF938C01C62FD72FE42E43
:100BF000F22E862F972F0E948F0C089710F489E011
:100C000001C080E01F928F93DF93CF938DE291E03C
:100C10009F938F930E94E30C0F900F900F900F9073
:100C20000F900F90FF20B9F0C5E2D1E0DD24D394FE
:100C3000DE0C6E2DC8010E948D041F928F93DF93EE
:100C4000CF930E94E30CFA940F900F900F900F90A7
:100C500011F0ED2CEBCF82E291E09F938F930E94F5
:100C6000E30C0F900F90DF91CF911F910F91FF90A8
:100C7000EF90DF9008954F925F926F927F928F92E4
:100C80009F92AF92BF92CF92DF92EF92FF920F931B
:100C90001F93CF93DF9300D000D01F92CDB7DEB764
:100CA0004C01062FF72E142F522E862F972F0E94BD
:100CB0008F0C089710F489E001C080E01F928F9399
:100CC000FF920F938AE191E09F938F930E94E30C30
:100CD0000F900F900F900F900F900F905520B1F143
:100CE000CE0101965C010F2EF6E16F2EF1E07F2E12
:100CF000F02D0F2EF1E1EF2EF1E0FF2EF02D442428
:100D00004394410E25E0A501612FC4010E945E04B9
:100D10007F926F920E94E30C8E010A5F1F4F650164
:100D20000F900F90F80182918F011F928F93FF9285
:100D3000EF920E94E30C0F900F900F900F900C1504
:100D40001D0581F75A9411F0142DD9CF8EE091E052
:100D50009F938F930E94E30C0F900F900F900F9032
:100D60000F900F900F90DF91CF911F910F91FF90F7
:100D7000EF90DF90CF90BF90AF909F908F907F903B
:100D80006F905F904F900895FC0181E08083118205
:100D900080E2828313821482168217821086118663
:100DA00012861386148615860895462F603808F03B
:100DB0004FE765E00E94D7040895CF93DF93EC01DD
:100DC00060E00E948D04482F436060E0CE010E94E5
:100DD000D70440E767E0CE010E94D7042E813F810F
:100DE000488559856A857B858C859D85A0E00E9414
:100DF0007D0C41F025E0AE014A5F5F4F6AE0CE0115
:100E00000E94A804CE010E947F05CE010E94950594
:100E1000299A83E091E00197F1F700C00000DF918B
:100E2000CF910895CF93DF93EC0129980E94950507
:100E3000CE010E947F05DF91CF910895CF93DF937C
:100E4000EC0160E00E948D04482F4D7F60E0CE01F0
:100E50000E94D704DF91CF910895FF920F931F93C3
:100E6000CF93DF93EC018B01F42E60E00E948D04A0
:100E70008C7F482F426060E0CE010E94D7048BE255
:100E800091E00197F1F700C000004F2DB801CE01AD
:100E90000E94F604299A98E29A95F1F72998DF9131
:100EA000CF911F910F91FF9008951F93CF93DF93E0
:100EB000EC0160E070E00E944A0480E60E94130B9F
:100EC0008FEF0E94130B182F61E070E0CE010E949B
:100ED0004A04812FDF91CF911F910895EF92FF92E5
:100EE0000F931F93CF93DF93EC018B010E94AB050F
:100EF000F82E86FBEE24E0F886FF16C001151105DA
:100F000039F0282F30E0359527952770F801208398
:100F100040E467E0CE010E94D704F5FE05C040E240
:100F200067E0CE010E94D7048E2DDF91CF911F91F3
:100F30000F91FF90EF90089560E070E00E946E07BF
:100F40000895CF93DF93EC010E943A0567E1CE014B
:100F50000E948D048170DF91CF910895EF92FF92EE
:100F60000F931F93CF93DF937B018A01E90140E741
:100F700067E00E94D70485FB992790F9F7019083D9
:100F800084FB992790F9F801908386FB882780F9E4
:100F90008883DF91CF911F910F91FF90EF9008957B
:100FA000CF92DF92EF92FF920F931F93CF93DF9335
:100FB00000D01F92CDB7DEB78C010E942D070E9492
:100FC000370B6B017C0121E0AE014D5F5F4F68E0A4
:100FD000C8010E945E04807369F40E94370BAB0164
:100FE000BC014C195D096E097F09443F5140610500
:100FF000710548F398012D5F3F4FAE014F5F5F4F82
:10100000BE016E5F7F4FC8010E94AE07FA80F801F3
:101010008381882329F0C8010E945507F801858340
:10102000C8010E941E07C8010E9495058F2D0F90D0
:101030000F900F90DF91CF911F910F91FF90EF9044
:10104000DF90CF900895EF92FF920F931F93CF936D
:10105000DF93CDB7DEB728970FB6F894DEBF0FBE8B
:10106000CDBF7C0109831A832B833C834D835E8330
:101070006F83788725E0AE014F5F5F4F6AE00E9483
:10108000A80425E0AE014F5F5F4F60E1C7010E94F9
:10109000A804F7014281413208F040E261E1C70152
:1010A0000E94D70428960FB6F894DEBF0FBECDBFBE
:1010B000DF91CF911F910F91FF90EF900895BF9214
:1010C000CF92DF92EF92FF920F931F93CF93DF9314
:1010D000CDB7DEB728970FB6F894DEBF0FBECDBFF1
:1010E0006C01B62EE982FA820B831C832D833E832A
:1010F0004F83588761110AC0F601E682F7820087A4
:101100001187228733874487558707C0F6E0F61793
:1011100008F43CC061E06B1568F0EB2DF0E0E95796
:10112000FE4F649125E0AE014F5F5F4FC6010E9404
:10113000A8040BC0EB2DF0E0E957FE4F649121E0CD
:10114000AE014F5F5F4F0E94A8040B2D10E0F80125
:10115000EF57FE4F6491F6014281C6010E94D70409
:1011600062E0C6010E948D04F801E558FE4F4491EB
:1011700021E030E0B90102C0660F771F4A95E2F71F
:10118000AB01482B62E0C6010E94D70428960FB637
:10119000F894DEBF0FBECDBFDF91CF911F910F91AD
:1011A000FF90EF90DF90CF90BF900895CF93DF93A3
:1011B000EC0160E070E00E944A0480E50E94130B9D
:1011C00083E70E94130B61E070E0CE010E944A04A5
:1011D000DF91CF910895CF93DF93EC016DE10E94F1
:1011E0008D04482F44606DE1CE010E94D7046DE16B
:1011F000CE010E948D0481110DC0CE010E94D6083F
:101200006DE1CE010E948D04482F44606DE1CE0156
:101210000E94D7046CE1CE010E948D04482F4F63D9
:101220006CE1CE010E94D70481E08C83DF91CF91E5
:1012300008951F93CF93DF93EC01162F66E00E9471
:101240008D04482F497F133011F446600BC01230D3
:1012500011F4446007C0113011F4426003C014302F
:1012600009F4466066E0CE010E94D704DF91CF9179
:101270001F91089566E00E948D04982F9670963015
:1012800039F0943039F081E0923029F080E008950F
:1012900083E0089582E008950F931F93CF93DF9327
:1012A000EC01062F66E00E948D041882182F177D2E
:1012B000023011F4106205C0013019F481E0888316
:1012C0001860412F66E0CE010E94D70466E0CE018F
:1012D0000E948D04181719F0188280E001C081E087
:1012E000DF91CF911F910F91089566E00E948D04C8
:1012F000982F9872903229F081E0983019F080E0B0
:10130000089582E008951F93CF93DF93EC01162F89
:1013100060E00E948D04482F437F112329F0113093
:1013200011F4486001C04C6060E0CE010E94D70417
:10133000DF91CF911F910895CF93DF93EC0184B19A
:10134000866084B90E940C0B299861E070E0CE01A0
:101350000E944A048FE097E20197F1F700C0000075
:101360004FE464E0CE010E94D70463E0CE010E9406
:10137000190962E0CE010E944C09882311F081E036
:10138000898360E0CE010E944C0962E0CE010E9498
:10139000830940E06CE1CE010E94D70440E767E09A
:1013A000CE010E94D7046CE4CE010E94D506CE0186
:1013B0000E947F05CE010E949505DF91CF9108958F
:1013C00060E00E948D0483FF04C082FF04C082E0BD
:1013D000089580E0089581E00895CF93DF93EC01B4
:1013E0000E94AB05682FCE010E94C10522E04AE0B1
:1013F00061E071E0CE010E943B0624E04CE064EF26
:1014000070E0CE010E94ED0521E040E16CEE70E05D
:10141000CE010E943B0626E041E161EE70E0CE0184
:101420000E94ED0521E041E06BED70E0CE010E94ED
:10143000ED0521E042E061ED70E0CE010E94ED0596
:1014400021E045E06BEC70E0CE010E94ED0521E06B
:1014500046E062EC70E0CE010E94ED0521E040E044
:101460006BEB70E0CE010E94ED0522E04CE16DEAED
:1014700070E0CE010E94ED05CE010E947509E82FB3
:10148000F0E0EE0FFF1FE951FE4F859194919F937D
:101490008F938BE990E09F938F930E94E30CE981F7
:1014A000F0E0EE0FFF1FE053FE4F859194919F9364
:1014B0008F938CE890E09F938F930E94E30CCE0172
:1014C0000E94E009E82FF0E0EE0FFF1FEE54FE4F00
:1014D000859194919F938F9389E790E09F938F9349
:1014E0000E94E30CCE010E943A09E82FF0E0EE0FD3
:1014F000FF1FE357FE4F859194919F938F9388E64A
:1015000090E09F938F930E94E30C8DB79EB7409617
:101510000FB6F8949EBF0FBE8DBFDF91CF91089597
:1015200020E1629FB00111244F70462B64E00E94BD
:10153000D70408950E94C40608950895EF92FF927B
:101540000F931F93CF93DF93EC010E949C09CE0170
:101550000E94EB084FE06FE0CE010E94900A02ED7E
:1015600010EF20EF30EF40EF50E060E070E0CE0190
:101570000E9423080F2EF1EEEF2EF02D0F2EF0EF2C
:10158000FF2EF02D00EF20EF30E040E050E061E072
:10159000CE010E945F08CE010E94DD06CE010E94AE
:1015A000ED09DF91CF911F910F91FF90EF9008957A
:1015B0001F93CF93DF93EC010E949C07882381F057
:1015C000CE010E945507182FBE01625E7F4F482F43
:1015D000CE010E94A1071FAFCF5BDF4F81E0888360
:1015E000DF91CF911F910895FF920F931F93CF9397
:1015F000DF93EC018B01F42E0E9412074F2DB801EE
:10160000CE010E94D007CE010E94DD06DF91CF916E
:101610001F910F91FF90089584B18C6284B9249832
:1016200083E58CBD08958EBD0DB407FEFDCF8EB54C
:101630000895813021F48CB580628CBD08958CB5FD
:101640008F7D8CBD08959CB5937F892B8CBD0895AB
:101650009CB5282F23709C7F922B9CBD2DB582FBBF
:10166000992790F9822F8E7F892B8DBD08952FB7F2
:10167000F89460910701709108018091090190919F
:101680000A012FBF08951F920F920FB60F921124D7
:101690002F933F938F939F93AF93BF9380910701B5
:1016A00090910801A0910901B0910A0130910601C1
:1016B00026E0230F2D3720F40296A11DB11D05C091
:1016C00029E8230F0396A11DB11D209306018093E5
:1016D000070190930801A0930901B0930A0180913A
:1016E0000B0190910C01A0910D01B0910E0101969A
:1016F000A11DB11D80930B0190930C01A0930D01CE
:10170000B0930E01BF91AF919F918F913F912F9117
:101710000F900FBE0F901F901895789484B582603B
:1017200084BD84B5816084BD85B5826085BD85B585
:10173000816085BDEEE6F0E0808181608083089560
:10174000CF93C82F8A3019F48DE00E94A00BE0ECF3
:10175000F0E0908195FFFDCFC093C60080E090E05F
:10176000CF910895CF93BC01E0ECF0E08081882315
:10177000ECF7C091C6008C2F0E94A00B8C2F90E03C
:10178000CF9108951092C50083E38093C400E0ECEC
:10179000F0E080818D7F808388E18093C100E2EC5E
:1017A000F0E08081877F808380818660808362EB28
:1017B0007BE080EA9BE00E94980C90938D018093DF
:1017C0008C01909391018093900190938F0180936D
:1017D0008E0108950E94C20B0E948D0B8AE491E055
:1017E0000E949E0A08950E94EA0B2FEF80E792E084
:1017F000215080409040E1F700C000008FE091E070
:101800000E944D012FEF89E698E1215080409040E1
:10181000E1F700C000002FEF89E698E121508040F9
:101820009040E1F700C000002FEF89E698E12150D9
:1018300080409040E1F700C000002FEF89E698E17A
:10184000215080409040E1F700C000008FE091E01F
:101850000E9447012FEF89E698E121508040904097
:10186000E1F700C000002FEF89E698E121508040A9
:101870009040E1F700C000002FEF89E698E1215089
:1018800080409040E1F700C000002FEF89E698E12A
:10189000215080409040E1F700C000002FEF89E622
:1018A00098E1215080409040E1F700C0000060E0E6
:1018B0008FE091E00E9494018FE091E00E94470147
:1018C00044E062E77EE68AE491E00E94F40AF4CF05
:1018D0008AE491E00E949A0A48E26AE471E08FE0AB
:1018E00091E00E942D0108958FE091E00E94430154
:1018F0008AE491E00E949D0A08950024A7FD0094C7
:101900002A173005400550056005700580059005D3
:101910000895EE0FFF1F0590F491E02D0994FC014E
:1019200005900020E9F7809590958E0F9F1F0895F0
:101930000F931F93CF93DF93EC018B01009731F44A
:101940006115710519F480E090E038C06EE070E038
:1019500081E090E00E94D70EFC010097A1F380E89F
:1019600083830115110571F01387028781E8838352
:1019700080918E0190918F01892B21F4F0938F013A
:10198000E0938E012097C9F0D187C0878381826060
:1019900083838091900190919101892B71F4F09350
:1019A0009101E09390018091920190919301892B94
:1019B00021F4F0939301E0939201CF01DF91CF9155
:1019C0001F910F910895A0E0B0E0E9EEFCE00C94C7
:1019D000D510FE0137966191719100E911E0D801AF
:1019E0008D919C91DC0113962C911397286013968E
:1019F0002C93AF010E94050DD801ED91FC9123813C
:101A0000277F2383E4E00C94F110ACE0B0E0EBE03E
:101A1000FDE00C94C7107C016B018A01FC01178268
:101A20001682838181FFBDC1CE0101964C01F70171
:101A30009381F60193FD859193FF81916F01882336
:101A400009F4ABC1853239F493FD859193FF8191FF
:101A50006F01853229F4B70190E00E943710E7CF7B
:101A6000512C312C20E02032A0F48B3269F030F47C
:101A7000803259F0833269F420612CC08D3239F004
:101A8000803339F4216026C02260246023C028609E
:101A900021C027FD27C030ED380F3A3078F426FFFB
:101AA00006C0FAE05F9E300D1124532E13C08AE069
:101AB000389E300D1124332E20620CC08E3221F45A
:101AC00026FD6BC1206406C08C3611F4206802C06C
:101AD000883641F4F60193FD859193FF81916F0162
:101AE0008111C1CF982F9F7D9554933028F40C5FBE
:101AF0001F4FFFE3F9830DC0833631F0833771F058
:101B0000833509F05BC022C0F801808189830E5FB4
:101B10001F4F44244394512C540115C03801F2E066
:101B20006F0E711CF801A080B18026FF03C0652DE7
:101B300070E002C06FEF7FEFC5012C870E942C1070
:101B40002C0183012C852F77222E17C03801F2E05B
:101B50006F0E711CF801A080B18026FF03C0652DB7
:101B600070E002C06FEF7FEFC5012C870E941A1052
:101B70002C012C852068222E830123FC1BC0832D81
:101B800090E048165906B0F4B70180E290E00E9458
:101B900037103A94F4CFF50127FC859127FE819107
:101BA0005F01B70190E00E94371031103A94F1E0E4
:101BB0004F1A51084114510471F7E5C0843611F0F1
:101BC000893639F5F80127FF07C06081718182816C
:101BD00093810C5F1F4F08C060817181882777FD5A
:101BE0008095982F0E5F1F4F2F76B22E97FF09C05A
:101BF00090958095709561957F4F8F4F9F4F20688E
:101C0000B22E2AE030E0A4010E946910A82EA81884
:101C100044C0853729F42F7EB22E2AE030E025C05B
:101C2000F22FF97FBF2E8F36C1F018F4883579F086
:101C3000B4C0803719F0883721F0AFC02F2F206152
:101C4000B22EB4FE0DC08B2D8460B82E09C024FFC7
:101C50000AC09F2F9660B92E06C028E030E005C06C
:101C600020E130E002C020E132E0F801B7FE07C019
:101C700060817181828193810C5F1F4F06C06081FA
:101C8000718180E090E00E5F1F4FA4010E946910F7
:101C9000A82EA818FB2DFF77BF2EB6FE0BC02B2D4C
:101CA0002E7FA51450F4B4FE0AC0B2FC08C02B2D40
:101CB0002E7E05C07A2C2B2D03C07A2C01C0752CEA
:101CC00024FF0DC0FE01EA0DF11D8081803311F467
:101CD000297E09C022FF06C07394739404C0822F2A
:101CE000867809F0739423FD13C020FF06C05A2C98
:101CF000731418F4530C5718732C731468F4B70149
:101D000080E290E02C870E94371073942C85F5CFE9
:101D1000731410F4371801C0312C24FF12C0B7011E
:101D200080E390E02C870E9437102C8522FF17C09B
:101D300021FF03C088E590E002C088E790E0B7018A
:101D40000CC0822F867859F021FD02C080E201C0CC
:101D50008BE227FD8DE2B70190E00E943710A514B9
:101D600038F4B70180E390E00E9437105A94F7CF1F
:101D7000AA94F401EA0DF11D8081B70190E00E9460
:101D80003710A110F5CF332009F451CEB70180E20E
:101D900090E00E9437103A94F6CFF7018681978140
:101DA00002C08FEF9FEF2C96E2E10C94E3100F93AB
:101DB0001F93CF93DF93869F8001879F100D969F7F
:101DC000100D1124C8010E94F30EEC01009729F0B8
:101DD000A80160E070E00E942510CE01DF91CF9154
:101DE0001F910F910895CF93DF938230910510F4E6
:101DF00082E090E0E0919601F091970120E030E0E0
:101E0000A0E0B0E0309739F140815181481759077F
:101E1000B8F04817590771F482819381109729F01F
:101E200013969C938E9312972CC090939701809356
:101E3000960127C02115310531F04217530718F0DC
:101E4000A901DB0101C0EF019A01BD01DF010280A0
:101E5000F381E02DD7CF21153105F9F0281B390B7F
:101E60002430310580F48A819B816115710521F050
:101E7000FB019383828304C0909397018093960122
:101E8000FE01329644C0FE01E20FF31F819391934D
:101E900022503109398328833AC02091940130912E
:101EA0009501232B41F420910201309103013093DD
:101EB0009501209394012091000130910101211599
:101EC000310541F42DB73EB7409104015091050111
:101ED000241B350BE0919401F0919501E217F30773
:101EE000A0F42E1B3F0B2817390778F0AC014E5F8A
:101EF0005F4F2417350748F04E0F5F1F5093950131
:101F0000409394018193919302C0E0E0F0E0CF010F
:101F1000DF91CF910895CF93DF93009709F487C0A5
:101F2000FC01329713821282C0919601D0919701E1
:101F3000209781F420813181280F391F80919401ED
:101F4000909195018217930779F5F0939501E093AD
:101F500094016DC0DE0120E030E0AE17BF0750F401
:101F600012964D915C9113979D014115510509F110
:101F7000DA01F3CFB383A28340815181840F951F8F
:101F80008A179B0771F48D919C911197840F951F6F
:101F900002969183808312968D919C9113979383DF
:101FA00082832115310529F4F0939701E09396017E
:101FB0003EC0D9011396FC93EE9312974D915D911B
:101FC000A40FB51FEA17FB0779F480819181840F74
:101FD000951F0296D90111969C938E9382819381CD
:101FE00013969C938E931297E0E0F0E08A819B8198
:101FF000009719F0FE01EC01F9CFCE01029628817D
:102000003981820F931F20919401309195012817F7
:10201000390769F4309729F41092970110929601CC
:1020200002C013821282D0939501C0939401DF9174
:10203000CF910895FC010590615070400110D8F7D0
:10204000809590958E0F9F1F0895DC0101C06D93C0
:1020500041505040E0F70895FC01615070400190FC
:102060000110D8F7809590958E0F9F1F08950F93BC
:102070001F93CF93DF93182F092FEB018B8181FDE5
:1020800003C08FEF9FEF20C082FF10C04E815F81A1
:102090002C813D81421753077CF4E881F9819F012F
:1020A0002F5F3F4F39832883108306C0E885F98569
:1020B000812F0995892B29F72E813F812F5F3F4F73
:1020C0003F832E83812F902FDF91CF911F910F910E
:1020D0000895FA01AA27283051F1203181F1E894BE
:1020E0006F936E7F6E5F7F4F8F4F9F4FAF4FB1E00B
:1020F0003ED0B4E03CD0670F781F891F9A1FA11D06
:10210000680F791F8A1F911DA11D6A0F711D811D06
:10211000911DA11D20D009F468943F912AE0269FCB
:1021200011243019305D3193DEF6CF010895462F2A
:102130004770405D4193B3E00FD0C9F7F6CF462F0B
:102140004F70405D4A3318F0495D31FD4052419374
:1021500002D0A9F7EACFB4E0A69597958795779531
:102160006795BA95C9F700976105710508959B01B8
:10217000AC010A2E06945795479537952795BA9541
:10218000C9F7620F731F841F951FA01D08952F921A
:102190003F924F925F926F927F928F929F92AF92F7
:1021A000BF92CF92DF92EF92FF920F931F93CF9344
:1021B000DF93CDB7DEB7CA1BDB0B0FB6F894DEBFDB
:1021C0000FBECDBF09942A88398848885F846E8401
:1021D0007D848C849B84AA84B984C884DF80EE804B
:1021E000FD800C811B81AA81B981CE0FD11D0FB654
:1021F000F894DEBF0FBECDBFED01089512E0C4E03C
:10220000D2E004C0FE010E948B0C2296C630D1079A
:06221000C9F7F894FFCFAE
:0622160000009801200009
:00000001FF
